{
  "_format": "hh-sol-artifact-1",
  "contractName": "ContractManager",
  "sourceName": "contracts/ContractManager.sol",
  "abi": [
    {
      "inputs": [
        {
          "internalType": "uint256",
          "name": "_fineAmount",
          "type": "uint256"
        }
      ],
      "stateMutability": "nonpayable",
      "type": "constructor"
    },
    {
      "anonymous": false,
      "inputs": [
        {
          "indexed": false,
          "internalType": "uint256",
          "name": "amount",
          "type": "uint256"
        }
      ],
      "name": "FineSet",
      "type": "event"
    },
    {
      "inputs": [],
      "name": "createSubcontract",
      "outputs": [
        {
          "internalType": "address",
          "name": "",
          "type": "address"
        }
      ],
      "stateMutability": "nonpayable",
      "type": "function"
    },
    {
      "inputs": [],
      "name": "fineAmount",
      "outputs": [
        {
          "internalType": "uint256",
          "name": "",
          "type": "uint256"
        }
      ],
      "stateMutability": "view",
      "type": "function"
    },
    {
      "inputs": [],
      "name": "owner",
      "outputs": [
        {
          "internalType": "address",
          "name": "",
          "type": "address"
        }
      ],
      "stateMutability": "view",
      "type": "function"
    },
    {
      "inputs": [
        {
          "internalType": "uint256",
          "name": "_newFine",
          "type": "uint256"
        }
      ],
      "name": "setFineAmount",
      "outputs": [],
      "stateMutability": "nonpayable",
      "type": "function"
    }
  ],
  "bytecode": "0x608060405234801561001057600080fd5b506040516109e33803806109e383398181016040528101906100329190610094565b336000806101000a81548173ffffffffffffffffffffffffffffffffffffffff021916908373ffffffffffffffffffffffffffffffffffffffff16021790555080600181905550506100de565b60008151905061008e816100c7565b92915050565b6000602082840312156100a657600080fd5b60006100b48482850161007f565b91505092915050565b6000819050919050565b6100d0816100bd565b81146100db57600080fd5b50565b6108f6806100ed6000396000f3fe608060405234801561001057600080fd5b506004361061004c5760003560e01c80631530b00e146100515780638da5cb5b1461006f578063cc4c8a8b1461008d578063d3b39b4a146100a9575b600080fd5b6100596100c7565b6040516100669190610339565b60405180910390f35b610077610197565b6040516100849190610339565b60405180910390f35b6100a760048036038101906100a291906102b2565b6101bb565b005b6100b161028a565b6040516100be9190610374565b60405180910390f35b60008060009054906101000a900473ffffffffffffffffffffffffffffffffffffffff1673ffffffffffffffffffffffffffffffffffffffff163373ffffffffffffffffffffffffffffffffffffffff1614610158576040517f08c379a000000000000000000000000000000000000000000000000000000000815260040161014f90610354565b60405180910390fd5b60003360405161016790610290565b6101719190610339565b604051809103906000f08015801561018d573d6000803e3d6000fd5b5090508091505090565b60008054906101000a900473ffffffffffffffffffffffffffffffffffffffff1681565b60008054906101000a900473ffffffffffffffffffffffffffffffffffffffff1673ffffffffffffffffffffffffffffffffffffffff163373ffffffffffffffffffffffffffffffffffffffff1614610249576040517f08c379a000000000000000000000000000000000000000000000000000000000815260040161024090610354565b60405180910390fd5b806001819055507fb65f4f672198b832f5230d451f8672caee143a7d46795f486cfa3633531fc09a8160405161027f9190610374565b60405180910390a150565b60015481565b6104cd806103f483390190565b6000813590506102ac816103dc565b92915050565b6000602082840312156102c457600080fd5b60006102d28482850161029d565b91505092915050565b6102e4816103a0565b82525050565b60006102f760168361038f565b91507f4e6f742074686520636f6e7472616374206f776e6572000000000000000000006000830152602082019050919050565b610333816103d2565b82525050565b600060208201905061034e60008301846102db565b92915050565b6000602082019050818103600083015261036d816102ea565b9050919050565b6000602082019050610389600083018461032a565b92915050565b600082825260208201905092915050565b60006103ab826103b2565b9050919050565b600073ffffffffffffffffffffffffffffffffffffffff82169050919050565b6000819050919050565b6103e5816103d2565b81146103f057600080fd5b5056fe608060405234801561001057600080fd5b506040516104cd3803806104cd8339818101604052810190610032919061008d565b806000806101000a81548173ffffffffffffffffffffffffffffffffffffffff021916908373ffffffffffffffffffffffffffffffffffffffff160217905550506100ff565b600081519050610087816100e8565b92915050565b60006020828403121561009f57600080fd5b60006100ad84828501610078565b91505092915050565b60006100c1826100c8565b9050919050565b600073ffffffffffffffffffffffffffffffffffffffff82169050919050565b6100f1816100b6565b81146100fc57600080fd5b50565b6103bf8061010e6000396000f3fe6080604052600436106100295760003560e01c806337a6d42b1461002e5780636d531e8314610059575b600080fd5b34801561003a57600080fd5b50610043610063565b60405161005091906102ca565b60405180910390f35b610061610087565b005b60008054906101000a900473ffffffffffffffffffffffffffffffffffffffff1681565b60008054906101000a900473ffffffffffffffffffffffffffffffffffffffff1673ffffffffffffffffffffffffffffffffffffffff163373ffffffffffffffffffffffffffffffffffffffff1614610115576040517f08c379a000000000000000000000000000000000000000000000000000000000815260040161010c906102e5565b60405180910390fd5b3373ffffffffffffffffffffffffffffffffffffffff1663d3b39b4a6040518163ffffffff1660e01b815260040160206040518083038186803b15801561015b57600080fd5b505afa15801561016f573d6000803e3d6000fd5b505050506040513d601f19601f8201168201806040525081019061019391906101ec565b3410156101d5576040517f08c379a00000000000000000000000000000000000000000000000000000000081526004016101cc90610305565b60405180910390fd5b565b6000815190506101e681610372565b92915050565b6000602082840312156101fe57600080fd5b600061020c848285016101d7565b91505092915050565b61021e81610336565b82525050565b6000610231601183610325565b91507f4e6f742061207061727469636970616e740000000000000000000000000000006000830152602082019050919050565b6000610271602283610325565b91507f496e73756666696369656e742066756e647320746f207061792074686520666960008301527f6e650000000000000000000000000000000000000000000000000000000000006020830152604082019050919050565b60006020820190506102df6000830184610215565b92915050565b600060208201905081810360008301526102fe81610224565b9050919050565b6000602082019050818103600083015261031e81610264565b9050919050565b600082825260208201905092915050565b600061034182610348565b9050919050565b600073ffffffffffffffffffffffffffffffffffffffff82169050919050565b6000819050919050565b61037b81610368565b811461038657600080fd5b5056fea264697066735822122074b6eec45c880b0e7bbc494b26efc5f9616734e88d55d9b7472b75a2f18c119f64736f6c63430008000033a264697066735822122026e49eac5650402154e194e0ed73730ed90ffc8c5cde799409fa43d56234988664736f6c63430008000033",
  "linkReferences": {},
  "deployedLinkReferences": {}
}