{
  "_format": "hh-sol-artifact-1",
  "contractName": "Subcontract",
  "sourceName": "contracts/ContractManager.sol",
  "abi": [
    {
      "inputs": [
        {
          "internalType": "address",
          "name": "_participant",
          "type": "address"
        }
      ],
      "stateMutability": "nonpayable",
      "type": "constructor"
    },
    {
      "inputs": [],
      "name": "participant",
      "outputs": [
        {
          "internalType": "address",
          "name": "",
          "type": "address"
        }
      ],
      "stateMutability": "view",
      "type": "function"
    },
    {
      "inputs": [],
      "name": "payFine",
      "outputs": [],
      "stateMutability": "payable",
      "type": "function"
    }
  ],
  "bytecode": "0x608060405234801561001057600080fd5b506040516104cd3803806104cd8339818101604052810190610032919061008d565b806000806101000a81548173ffffffffffffffffffffffffffffffffffffffff021916908373ffffffffffffffffffffffffffffffffffffffff160217905550506100ff565b600081519050610087816100e8565b92915050565b60006020828403121561009f57600080fd5b60006100ad84828501610078565b91505092915050565b60006100c1826100c8565b9050919050565b600073ffffffffffffffffffffffffffffffffffffffff82169050919050565b6100f1816100b6565b81146100fc57600080fd5b50565b6103bf8061010e6000396000f3fe6080604052600436106100295760003560e01c806337a6d42b1461002e5780636d531e8314610059575b600080fd5b34801561003a57600080fd5b50610043610063565b60405161005091906102ca565b60405180910390f35b610061610087565b005b60008054906101000a900473ffffffffffffffffffffffffffffffffffffffff1681565b60008054906101000a900473ffffffffffffffffffffffffffffffffffffffff1673ffffffffffffffffffffffffffffffffffffffff163373ffffffffffffffffffffffffffffffffffffffff1614610115576040517f08c379a000000000000000000000000000000000000000000000000000000000815260040161010c906102e5565b60405180910390fd5b3373ffffffffffffffffffffffffffffffffffffffff1663d3b39b4a6040518163ffffffff1660e01b815260040160206040518083038186803b15801561015b57600080fd5b505afa15801561016f573d6000803e3d6000fd5b505050506040513d601f19601f8201168201806040525081019061019391906101ec565b3410156101d5576040517f08c379a00000000000000000000000000000000000000000000000000000000081526004016101cc90610305565b60405180910390fd5b565b6000815190506101e681610372565b92915050565b6000602082840312156101fe57600080fd5b600061020c848285016101d7565b91505092915050565b61021e81610336565b82525050565b6000610231601183610325565b91507f4e6f742061207061727469636970616e740000000000000000000000000000006000830152602082019050919050565b6000610271602283610325565b91507f496e73756666696369656e742066756e647320746f207061792074686520666960008301527f6e650000000000000000000000000000000000000000000000000000000000006020830152604082019050919050565b60006020820190506102df6000830184610215565b92915050565b600060208201905081810360008301526102fe81610224565b9050919050565b6000602082019050818103600083015261031e81610264565b9050919050565b600082825260208201905092915050565b600061034182610348565b9050919050565b600073ffffffffffffffffffffffffffffffffffffffff82169050919050565b6000819050919050565b61037b81610368565b811461038657600080fd5b5056fea264697066735822122074b6eec45c880b0e7bbc494b26efc5f9616734e88d55d9b7472b75a2f18c119f64736f6c63430008000033",
  "linkReferences": {},
  "deployedLinkReferences": {}
}